:020000040000FA
:1000000085018601831685018601831207309F00D2
:10001000051439200510851439208510051539205F
:10002000051185153920851105163920051285160B
:1000300039208512051739200513851739208513B6
:10004000061439200610861439208610061539202A
:1000500006118615392086110616392006128616D5
:100060003920861206173920061386173920861381
:100070000828FA30A000C830A10000000000A10B41
:080080003D28A00B3B280800FD
:04008800003400340C
:02400E00703F01
:00000001FF
